:100000000C943D000C9465000C9465000C94650004
:100010000C9465000C9465000C940D020C94340251
:100020000C9465000C9465000C9465000C946500BC
:100030000C9465000C9428050C9465000C94D40A6B
:100040000C9465000C9465000C9465000C9465009C
:100050000C9465000C9465000C9465000C9465008C
:100060000C9465000C949D080C9465000C9465003C
:100070000C9465000C946500550D11241FBECFEF44
:10008000CDBFDFE3DEBF18E3A0E0B8E3E7ECF0E2CA
:1000900002C005900D92AC34B107D9F72AE3ACE465
:1000A000B8E301C01D92AF38B207E1F710E0CDE32D
:1000B000D0E004C02197FE010E94F70DCC33D10798
:1000C000C9F70E94C30C0C941A100C940000811103
:1000D000FFCF0895FC0128ED24BF60830895DF92CF
:1000E000EF92FF920F931F93CF93DF93CDB7DEB7BD
:1000F0002797CDBFDEBFF12C87E0E82E01E010E0AE
:10010000DD24D39480914D38F81608F040C0EF9C60
:10011000F0011124E25BF74CDE0111968E2D019067
:100120000D928A95E1F78981E82FE695E695E695A7
:1001300040E2E49FF0011124FC5F30852B81877041
:10014000A80102C0440F551F8A95E2F7CA01932FF8
:1001500098238D81992349F09C81891768F48F5FDA
:100160008D83891748F4DB8207C0882329F08150EA
:100170008D83811101C01B828B81281731F0BE0154
:100180006F5F7F4F8A810E941806F394BBCF27963A
:10019000CDBFDEBFDF91CF911F910F91FF90EF9008
:1001A000DF9008952F923F924F925F926F927F92CD
:1001B0008F929F92AF92BF92CF92DF92EF92FF9277
:1001C0000F931F93CF93DF9300D000D0CDB7DEB74E
:1001D000B82EA62E882321F0809129048B8303C09A
:1001E000909109049B831C82E0E2BE9E6001112471
:1001F000FCEFDF1A88248394912C9B8190FF54C0DC
:100200008A2D8170282E87E0382EF4010C8002C0E0
:10021000EE0FFF1F0A94E2F7E983FA83232D30E003
:1002200080910038082E000C990B28173907A1F18E
:1002300087E0829FF001839FF00D1124E25BF74C71
:10024000E0808E2D869586958695B81223C08E2DDA
:1002500087709C8198131EC043805480658076808F
:100260006E2D722D81810E94180641145104610483
:10027000710451F0F22C00E010E09801B301A201EA
:1002800080E00E94650706C0F6018185F9818F2B09
:10029000F60181873A94C2CFFC81FF5FFC838B819A
:1002A00086958B83A694A9CF2496CDBFDEBFDF9120
:1002B000CF911F910F91FF90EF90DF90CF90BF9063
:1002C000AF909F908F907F906F905F904F903F90F6
:1002D0002F9008950F931F93CF93DF93082F162F1E
:1002E000D42FC22F20914D3830E080910038082E55
:1002F000000C990B821793073CF448E350EA6FEF28
:1003000070E081E00E946700DD2339F0E091003861
:100310008FEF8E0F8093003806C0E0914D3881E05A
:100320008E0F80934D3887E0E89FF0011124E25B47
:10033000F74C00831183DD2351F0D2838C2F90E0A2
:10034000A0E0B0E083839483A583B68301C0C48317
:10035000DF91CF911F910F910895EF92FF920F932C
:100360001F93CF93DF931F92CDB7DEB740914D38E7
:100370004423C1F06AE58FE690E00E94E005809397
:100380004C3860E070E0CB010E945407AB01BC0127
:10039000E12CF12C05E010E020E030E080914C38B9
:1003A0000E94650727E037E0422F50E08091003837
:1003B000082E000C990B4817590739F1349FF001AA
:1003C000359FF00D1124E25BF74C8081982F9695B4
:1003D00096959695E92FE695E695E69540E2E49F99
:1003E000F0011124E05FFB4F9770E90FF11D9FB7FB
:1003F0009983F89449819081987F90839081877048
:10040000892B80834FBF2150CFCF0F90DF91CF91A9
:100410001F910F91FF90EF9008951F920F920FB6CA
:100420000F9211242F933F934F935F936F937F937A
:100430008F939F93AF93BF93EF93FF9360910804C3
:1004400080E00E94D200FF91EF91BF91AF919F9108
:100450008F917F916F915F914F913F912F910F906D
:100460000FBE0F901F9018951F920F920FB60F920C
:1004700011242F933F934F935F936F937F938F93A9
:100480009F93AF93BF93EF93FF936091280481E014
:100490000E94D200FF91EF91BF91AF919F918F91F8
:1004A0007F916F915F914F913F912F910F900FBE70
:1004B0000F901F901895EF92FF920F931F93CF9379
:1004C000DF93FC01A285B38580E021E030E09C91C0
:1004D000911108C0808591858287938784858111D9
:1004E00046C060C0813079F19032D1F19B3299F4ED
:1004F0008081C82FC695C695C69540E2C49FE0018D
:100500001124DC5F8770A90102C0440F551F8A9532
:10051000E2F74D8316C09D3299F48081C82FC695AD
:10052000C695C69550E2C59FE0011124DC5F877037
:10053000A90102C0440F551F8A95E2F74E8301C0FE
:10054000119781E00EC0492F50E0405351094A30C5
:10055000510518F49053938301C0119782E001C0B4
:1005600080E01196823009F0B2CFA287B387EF0105
:1005700061817281038002C0769567950A94E2F7E3
:1005800080E090E00E945407AB01BC017E0100E0D6
:1005900010E098018091793A0E9465076C837D8311
:1005A0008E839F83DF91CF911F910F91FF90EF90EA
:1005B00008951F93CF93DF93EC01162F6C817D81FB
:1005C0008E819F81611571058105910511F00E9451
:1005D000DD088881E82FE695E695E69540E2E49F00
:1005E000F0011124FC5F877021E030E0A90102C016
:1005F000440F551F8A95E2F7112311F0458301C07E
:100600004683DF91CF911F9108958F929F92AF9271
:10061000BF92EF92FF920F93CF93DF93EC014A01C9
:100620005B0179016C817D818E819F8161157105EE
:100630008105910511F00E94DD08E886F986EA86B9
:10064000FB860C8789829A82CE01DF91CF910F9130
:10065000FF90EF90BF90AF909F908F900C945B02B3
:1006600048E064EB8BE592E00E94E0058093793AE4
:100670000895CF93C82F6DE070E081E090E00E9474
:100680004B03FC01C0831486209186382F5F209392
:100690008638CF9108950F931F93CF93DF93869F52
:1006A000E001879FD00D969FD00D11240091013855
:1006B00010910238F801EC0FFD1F80818A3A39F061
:1006C00043E550EA6CE270E081E00E946700AE0111
:1006D00060E070E0C8010E94E20F809101389091C3
:1006E0000238C80FD91FC0930138D0930238C8010F
:1006F000DF91CF911F910F910895CF92DF92EF92EA
:10070000FF920F931F93CF93DF93E091863AF0917E
:10071000873A8081882309F419C130917F3A309358
:100720007E3A00917B3A10917C3A40E050E0C0E084
:10073000D0E020E097E0D92E65E0C62E77E0E72EE6
:10074000F12CE091863AF091873A8081811119C0AD
:100750004091803A5091813ACA0100907A3A02C0A1
:10076000969587950A94E2F78093893890938A3812
:1007700060918738709188388617970709F09EC076
:100780009BC0223079F128F4222351F02130E1F08E
:1007900086C0233009F454C0243009F472C07FC0ED
:1007A0009FEB980F973040F490E0CC97B7010E94F0
:1007B000CF0DAC0121E073C0823509F070C01092FA
:1007C000803A1092813A3AC0823609F462C0843687
:1007D00009F462C03197E093863AF093873AC1E01A
:1007E000D0E05CC08C3249F480917A3A882309F4D5
:1007F00056C0815080937A3A52C0873249F4809132
:100800007A3A8F5F6C2D0E94C30D90937A3A47C05D
:100810003197E093863AF093873ADC9EF001DD9EB3
:10082000F00D1124E40FF51FEE0FFF1FED5FF74CE5
:10083000808191818093803A9093813A23E02FC008
:10084000682F70E0605371096A30710598F4805325
:10085000B80102C0769567958A95E2F7CB01A0E0D2
:10086000B0E08093823A9093833AA093843AB09315
:10087000853A05C03197E093863AF093873A24E0B1
:100880000EC091E08E3709F090E090937F3A25E01A
:1008900006C0C0E0D0E002C0C2E0D0E022E080911B
:1008A000863A9091873A01968093863A9093873A58
:1008B000253009F046CF4CCF311126C020918D381C
:1008C000222361F0452B29F080938B3890938C384C
:1008D0001BC010928B3810928C3816C0452B61F0DB
:1008E00010928A0A10928B0A80938C0A90938D0A38
:1008F0002091800A216006C028E020930604209100
:10090000800A2E7F2093800A8093873890938838BE
:100910006091823A7091833A8091843A9091853ABD
:100920000E945407AB01BC01E12CF12C00E010E067
:1009300098018091883A0E94650760938E38709381
:100940008F38809390389093913808C08091800AB6
:100950008E7F8093800A88E080930604DF91CF9198
:100960001F910F91FF90EF90DF90CF90089510921C
:100970008D3880918B3890918C38009761F010926F
:100980008A0A10928B0A80938C0A90938D0A809128
:10099000800A816006C088E0809306048091800A06
:1009A0008E7F8093800A10928B3810928C38089535
:1009B0008DE080931301E0E8FAE01286138610823E
:1009C000118281E0858341E062E88DE793E00E9437
:1009D000E0058093883A41E062E887EB94E00E946A
:1009E000E0058093893A0895EF92FF920F931F9349
:1009F0002091803A3091813A20938B3830938C3813
:100A000010928A0A10928B0A80938C0A90938D0A16
:100A1000411551056105710579F0CB01BA010E94BC
:100A20005407AB01BC01E12CF12C00E010E098016F
:100A30008091893A0E94650781E080938D381F91EB
:100A40000F91FF90EF90089580E090E00C94B70430
:100A50001F920F920FB60F9211248F93EF93FF9373
:100A6000E0E8FAE086818260868388E0809307046C
:100A7000FF91EF918F910F900FBE0F901F901895DF
:100A80000F931F93CF93DF930097B1F08B01EC018D
:100A900062E070E0C8010E944B0388839983A8013B
:100AA000440F551F6FEF70E00E94E20F1A821B8205
:100AB0001C820D8381E001C080E0DF91CF911F9106
:100AC0000F910895FC01892B31F091E0848181110F
:100AD00090E0892F01C080E081700895FC01892B8E
:100AE00009F161157105F1F084818823D9F0A281A3
:100AF000AA0FBB0B80819181A80FB91F8D919C918A
:100B0000DB018D939C938281082E000C990B01963A
:100B1000658170E00E94CF0D82838481815084833F
:100B200081E0089580E00895FC01892B31F1A381D3
:100B3000AA0FBB0B80819181A80FB91F6D937C9385
:100B40004581242F30E08381082E000C990B0196FB
:100B5000B9010E94CF0D83838481841718F48F5FBD
:100B6000848309C08281082E000C990B0196B9017B
:100B70000E94CF0D828381E0089580E00895FC01FA
:100B80003181FB01218181E090E0321740F0231791
:100B900010F080E090E09195819591090895089575
:100BA00090914339E4E4F9E380E0981719F08193D8
:100BB0008F5FFBCF8091500081608093500008953B
:100BC0000F931F93CF93DF938C01D62FC42F809167
:100BD0009238882339F044E650EA6EE770E081E00D
:100BE0000E946700409143392BE0429FC0011124CD
:100BF000FC01ED56F74C00831183D28321E030E0F5
:100C000002C0220F331F4A95E2F7238334836C2FEF
:100C100070E08856974C0E9440058091433991E0DE
:100C2000980F90934339DF91CF911F910F910895C1
:100C3000F89440918A3A50918B3A2BE0829FC00100
:100C40001124FC01ED56F74C23813481242B352BE4
:100C500020938A3A30938B3A8856974C0E94940599
:100C600078940895CF93DF9300D0CDB7DEB7CDB69B
:100C7000DEB680914339682F70E09B01220F331F4D
:100C80004DB75EB7421B530B4DBF5EBFADB7BEB78E
:100C900011967D018D0123E938E3FD0190E089176C
:100CA00051F09083D90112964C9141839F5F329607
:100CB000255F3F4FF4CF2FEB35E042E050E0C70116
:100CC0000E943E0EF8945090433994E4292E99E303
:100CD000392E20E030E080E090E0DC0161E070E05F
:100CE0004BE0742E2515C8F5F8016080AB01022E8B
:100CF00002C0440F551F0A94E2F74A01052E000C6A
:100D0000AA08BB08F10161921F01769C70011124B1
:100D1000F701ED56F74C43835483E0908A3AF09004
:100D20008B3AAB0102C0440F551F6A94E2F74E2183
:100D30005F21452B29F088299929AA29BB2908C0B8
:100D400080949094A094B09488219921AA21BB21E9
:100D50002F5F3F4F0E5F1F4FC5CF21E0209392388A
:100D600080938A3A90938B3A7894CDBEDEBE8BE026
:100D7000D82EF89480918A3A90918B3A892B19F465
:100D800078948895F6CF80918A3A90918B3A282F63
:100D900078944091433950E080E090E084179507C3
:100DA00040F720FF48C0A895F894FC01EC5BF64C96
:100DB000008110E0D09EC001D19E900D11249C01B5
:100DC0002856374C7901BE016F5F7F4FC9010E94E1
:100DD0006E05811107C044E650EA62E171E081E0EE
:100DE0000E946700C7010E9462058823A9F0209134
:100DF0008A3A30918B3AD09EF001D19EF00D1124A9
:100E0000ED56F74C838194818095909582239323AE
:100E100080938A3A90938B3A7894D09EF001D19E39
:100E2000F00D1124ED56F74C0190F081E02D8981F1
:100E30009A8109959ECF26950196B0CF60E081E614
:100E400090E00C946A007894609157397091583909
:100E50008091593990915A39F894089510929A0ACC
:100E600010929B0A80E197E280939C0A90939D0ADE
:100E70001092980A83E08093900A1092910A81E080
:100E80008093950AEBE5F9E38FEF80833F969AE331
:100E9000EB34F907D1F741E06EEB8FE298E00E9466
:100EA000E005809354390895CF92DF92EF92FF923C
:100EB0006B017C010E9423076C0D7D1D8E1D9F1D03
:100EC000FF90EF90DF90CF9008953F924F925F9206
:100ED0006F927F928F929F92AF92BF92CF92DF924A
:100EE000EF92FF920F931F93CF93DF9300D01F9247
:100EF000CDB7DEB7382E4A015B01280139018701E1
:100F00000E9423076B017C01809156398B839B8162
:100F100080915539981311C0EB812FE0E202F00166
:100F20001124E55AF64C80818F3F39F049E750EAA9
:100F300062E071E080E00E9467002FE0B501A4014B
:100F40004C195D096E097F099B818091553998176D
:100F5000D9F03B813203F0011124E55AF64C85812A
:100F60009681A781B0858C199D09AE09BF094817E4
:100F700059076A077B0744F08B818F3011F08F5F30
:100F800001C080E08B83E0CF809155398A839A81BC
:100F90008B819817D1F08A81882311F0815001C08C
:100FA0008FE0898329814A813FE04303D0011124E6
:100FB000A55AB64C2303F0011124E55AF64C0190D2
:100FC0000D923A95E1F78981E1CF80912D3890918A
:100FD0002E38A0912F38B0913038BC01CD016F5F11
:100FE0007F4F8F4F9F4F60932D3870932E38809393
:100FF0002F3890933038EB812FE0E202F00111247A
:10100000E55AF64C308261837283838394838582B0
:101010009682A782B086418652866386748605874B
:101020001687209155392F3011F02F5F01C020E035
:10103000209355392396CDBFDEBFDF91CF911F910D
:101040000F91FF90EF90DF90CF90BF90AF909F9067
:101050008F907F906F905F904F903F9008956F9228
:101060007F928F929F92AF92BF92CF92DF92EF9238
:10107000FF920F931F93CF93DF930E9423074B019F
:101080005C018FE0782E66246A94909156398091A5
:101090005539981709F442C0C09056390C2C000CF1
:1010A000DD087C9CE0017D9CD00D1124C55AD64CF6
:1010B0008D819E81AF81B88588169906AA06BB06E8
:1010C00068F16D857E8588810E94180609851A85DC
:1010D0002B853C85011511052105310569F04D81F0
:1010E0005E816F817885400F511F621F731FE12C55
:1010F000F12C88810E946507809156398F3011F05C
:101100008F5F01C080E0809356397C9CF0017D9C0C
:10111000F00D1124E55AF64C6082B7CFDF91CF91E4
:101120001F910F91FF90EF90DF90CF90BF90AF9005
:101130009F908F907F906F9008951F920F920FB69F
:101140000F9211242F933F934F935F936F937F934D
:101150008F939F93AF93BF93EF93FF93E0E9FAE0F0
:101160008681826086838091573990915839A09109
:101170005939B0915A390196A11DB11D8093573943
:1011800090935839A0935939B0935A3960E070E080
:10119000809154390E941806FF91EF91BF91AF9151
:1011A0009F918F917F916F915F914F913F912F917F
:1011B0000F900FBE0F901F901895CF92DF92EF9275
:1011C000FF92CF93DF9300D01F92CDB7DEB720916F
:1011D00056392B833FE04B81209155394217B1F1AD
:1011E0002B812303F0011124E55AF64CC180D280F3
:1011F000E380F480C616D706E806F90661F78FEF9C
:1012000080838B818A834FE09A818091553998172A
:10121000D9F08A818F3011F08F5F01C080E089831F
:1012200039812A812403D0011124A55AB64C3403F4
:10123000F0011124E55AF64C842F01900D928A9505
:10124000E1F789818A83E0CF81E001C080E02396C5
:10125000CDBFDEBFDF91CF91FF90EF90DF90CF90B9
:1012600008958091553A8038E1F324E630E0E0912A
:101270004B3AF0914C3A85818370813021F02150B6
:10128000310909F0F4CF8091553A232B09F48DEF01
:101290001092543A0895CF93DF93E0914B3AF09136
:1012A0004C3A858183FF06C08860858383E0848310
:1012B00086EF7FC0982F947121F083E084838FEFB5
:1012C00078C086FF41C0A0914D3AB0914E3A8091CE
:1012D0004F3A9091503A14962D913C911597821760
:1012E000930764F49C012F5F3F4F20934F3A309354
:1012F000503AA80FB91F11968C9122C08091513A93
:101300009091523A18962D913C9119978217930714
:10131000C8F42091533A222321F08781816087838A
:101320004AC016962D913C911797AC014F5F5F4FC5
:101330004093513A5093523AD901A80FB91F8C915A
:10134000808739C083E02CC087FF32C0A0914D3A1E
:10135000B0914E3A8091513A9091523A18962D910F
:101360003C91199782179307F8F416966D917C912A
:1013700017979C012F5F3F4F2093513A3093523A79
:101380004085EB01C80FD91F488318968D919C9119
:1013900019972817390718F482E084830CC087E076
:1013A00084831092553A07C083E0848389EF01C09B
:1013B0008BEF8093553ADF91CF910895FC018481A2
:1013C0008860848389E5868381EC838381E08583DB
:1013D000EBE4FAE31186128680E00895CF93DF9361
:1013E0001F92CDB7DEB7DC01FB01892BA1F130974D
:1013F00091F182859091543A992319F081112DC071
:10140000FFCF8FB78983F894898191E09093543A04
:1014100090E89093553A8FBFA0934B3AB0934C3AD3
:1014200060934D3A70934E3A10924F3A1092503A60
:101430001092513A1092523A4093533A9081990F38
:1014400024813581232B11F44111916017969C93CF
:101450000E94310903C088EF01C086EF0F90DF9131
:10146000CF9108950E941E07E0E0F4E084E08683B7
:10147000818392E09683918330E1328320E222835C
:1014800040E4428340E84283A0E2B4E012963C93F9
:10149000129712962C93A0E4B4E021E016962C93B8
:1014A000169711962C93119716969C931697119652
:1014B0009C93119716968C93169711968C9311976F
:1014C00088E016968C93169711968C938683818369
:1014D0000E94D0050E942E070E9430030E94AD0199
:1014E0000C94D8040E94310981110DC02091633AF7
:1014F0003091613A95EA9327291749F08AE58327C5
:1015000028130AC004C0682F880F770B07C061E05A
:1015100070E080918C3A04C06CEF7FEF80918D3A3F
:101520000C94180660938D3A80938C3A80EA98E088
:101530000E94DE09E0EAF8E083818160838341E074
:101540006EE682E79AE00E94E00580938E3A089565
:101550008093613A9093623A94E59093563A8093DF
:10156000573A81E090E080935A3A90935B3A23E6B1
:101570003AE320935C3A30935D3A80935E3A9093DD
:101580005F3A8093603A41E066E57AE380EA98E06A
:101590000E94EE09803839F0682F880F770B809110
:1015A0008D3A0C94180608951F920F920FB60F9261
:1015B00011242F933F934F935F936F937F938F9358
:1015C0009F93AF93BF93EF93FF930E944B0960E00B
:1015D00070E080918E3A0E941806FF91EF91BF91C2
:1015E000AF919F918F917F916F915F914F913F91BB
:1015F0002F910F900FBE0F901F90189510923538B5
:10160000089580E0089580E008950F931F9382E08D
:10161000F801808381E01F910F91089580E0089583
:101620000F931F9381E0F80180831F910F9108951C
:1016300080E0089561E0892B09F460E080913538FD
:1016400018161CF48150809335388091653A90913A
:10165000663A0C94D9020F939091353897FD26C0C5
:1016600022E0290F2093353880916D3A90916E3A9F
:101670002B309CF061E00E94D90248E853E160E021
:1016800070E088E893E10E94F40460E08091653A9C
:101690009091663A0F910C94D90201E02CE830EA5F
:1016A00044EF51E060E070E00E9405030F9108955F
:1016B00080916F3A811108C048EC50E060E070E022
:1016C00086EE9BE10C94F40408958091A508837044
:1016D000813021F480E090E00C942B0B80914A380B
:1016E00090914B380C94A80A992359F040E050E0AF
:1016F000BA0184ED90E30E94F40481E080936F3A94
:1017000008950E94240510926F3A08950F931F9335
:10171000CF93DF931F92CDB7DEB7E091643AF0E04C
:10172000EE0FFF1F992319F0E354FF4502C0ED545B
:10173000FF450190F081E02D04E61AE39801A8012D
:10174000B801CE01019609950F90DF91CF911F91BD
:101750000F9108950F931F93CF93DF931F92CDB7EF
:10176000DEB78B3081F484E0992351F08093050437
:10177000E091643AF0E0EE0FFF1FE755FF450EC021
:101780008093060416C08A30A1F4992391F0E09169
:10179000643AF0E0EE0FFF1FE156FF450190F08143
:1017A000E02D04E61AE39801A801B801CE010196E4
:1017B00009950F90DF91CF911F910F910895EF92AE
:1017C000FF920F931F93F82E609131387091323849
:1017D00080913338909134386F3F2FEF7207820732
:1017E000920711F00E94DD08FF20E1F0E0904A38F6
:1017F000F0904B3861E070E080E090E00E94540788
:10180000AB01BC0104E610E020E030E08091753AC5
:101810000E94650760933138709332388093333873
:10182000909334381F910F91FF90EF900895E6E365
:10183000F8E380E090E02381222351F0880F991F84
:10184000880F991FFC01EA5CF74C8181928107C0E7
:10185000019634968530910571F78FE490E02091E0
:101860004A3830914B388217930739F080934A38C1
:1018700090934B3881E00C94DF0B0895CF93DF9366
:10188000EC01E6E3F8E320E030E080818C130BC04C
:10189000220F331F220F331FF901EA5CF74CD38369
:1018A0000E94170C06C02F5F3F4F3496253031053C
:1018B00061F7C43049F46D2F80916B3A90916C3A86
:1018C000DF91CF910C94D902DF91CF9108950F93BE
:1018D0001F9383E0F80180838AE091E00E943E0C30
:1018E00001E027E930EA48EE53E060E070E08091E3
:1018F000693A90916A3A0E94050381E01F910F9125
:1019000008950F931F9384E0F80180838BE091E0AA
:101910000E943E0C01E027E930EA48EE53E060E027
:1019200070E08091673A9091683A0E94050381E0E7
:101930001F910F9108950F931F9382E0F801808308
:101940008BE090E00E943E0C60E08091673A9091BD
:10195000683A0E94D90281E01F910F9108950F9378
:101960001F9381E0F80180838AE090E00E943E0CA2
:1019700060E08091693A90916A3A0E94D90281E0D0
:101980001F910F910895EF92FF920F931F930E9462
:10199000320A24E040E06091783A84E00E946A01D3
:1019A00024E040E06091783A85E00E946A0124E0FA
:1019B00040E06091783A86E00E946A0124E040E0CD
:1019C0006091703A8DE00E946A0124E040E06091ED
:1019D000713A8AE00E946A0124E040E06091713A25
:1019E0008BE00E946A0124E040E06091763A87E053
:1019F0000E946A012AE042E06091773A8CE00E94FE
:101A00006A0100E02BE930EA48EE53E060E070E064
:101A100080916D3A90916E3A0E9405032BE930EA6D
:101A200048EE53E060E070E080916B3A90916C3A40
:101A30000E9405032BE930EA48EE53E060E070E0D5
:101A40008091693A90916A3A0E9405032BE930EA45
:101A500048EE53E060E070E08091673A9091683A18
:101A60000E9405036091743A8091733A0E94920A31
:101A700081E00E94DF0B60E177E280E090E00E946D
:101A80005407AB01BC01E12CF12C00E010E09801FF
:101A90008091723A0E9465070E94320680E090E0D1
:101AA0001F910F91FF90EF90089541E060E58EE364
:101AB0009CE00E94E0058093783A41E062E888E586
:101AC0009BE00E94E0058093773A41E06AE584E775
:101AD0009BE00E94E0058093763A42E06EEB85E65B
:101AE0009BE00E94E0058093753A41E06AE58BE255
:101AF0009BE00E94E0058093743A41E066E48AE14D
:101B00009BE00E94E0058093733A41E06EE18EEF26
:101B10009AE00E94E0058093723A41E066E48AEA26
:101B20009BE00E94E0058093713A41E068E286E81C
:101B30009BE00E94E0058093703A83E10E943903A4
:101B400080936D3A90936E3A80E10E9439038093BE
:101B50006B3A90936C3A82E10E9439038093693A20
:101B600090936A3A81E10E9439038093673A909397
:101B7000683A81E00E9439038093653A9093663A0F
:101B80001092643A0895991B79E004C0991F961742
:101B900008F0961B881F7A95C9F78095089597FBE2
:101BA000072E16F4009407D077FD09D00E94E30DAC
:101BB00007FC05D03EF4909581959F4F0895709550
:101BC00061957F4F0895AA1BBB1B51E107C0AA1F57
:101BD000BB1FA617B70710F0A61BB70B881F991FCE
:101BE0005A95A9F780959095BC01CD010895EE0F07
:101BF000FF1F0590F491E02D0994DC01FB018C910D
:101C000090819D9381934150510914161506BCF3A0
:101C10000895A0E0B0E0EFE0FEE00C94F30F7C014B
:101C20006B01D42FC52F8901F90109956D2F7C2FE8
:101C300097FF10C0C601F801099597FF02C0C601C1
:101C400018C06D2F7C2FC701F801099597FD0FC0B3
:101C5000C7010FC0C601F8010995181619067CF3D3
:101C60006D2F7C2FC701F801099597FDF1CF8D2FBE
:101C70009C2FCDB7DEB7E8E00C940C10AAE0B0E0E2
:101C8000E4E4FEE00C94E90F8C017B0149875A875C
:101C9000690129853A85200F311F29833A8337E06E
:101CA000E316F10470F569807A8049855A85E49ECF
:101CB0005001E59EB00CF49EB00C1124A00EB11E94
:101CC0006A147B0408F07AC173010E151F0528F011
:101CD00089859A85680E791EF3CF4701E985FA85D3
:101CE0008E1A9F0AB701C401F60109951816190644
:101CF0007CF749855A85B401C7010E94FD0D740126
:101D0000E4CFC7019695879529853A85829F500132
:101D1000839FB00C929FB00C1124A00EB11EA7019E
:101D2000415051094B835C8357E0E516F10409F4F7
:101D30004CC08B819C81829F3001839F700C929F4D
:101D4000700C1124600E711E99E2E916F104A8F1DD
:101D5000C70143E0969587954A95E1F7829F400138
:101D6000839F900C929F900C11241401220C331C21
:101D7000A801420D531DB801680D791D9601C801D7
:101D80000E94090E2C01A501480D591D91948194C2
:101D900091089601B501C501880D991D0E94090E93
:101DA0005C01B301680D791D9601A301C30182197D
:101DB00093090E94090E3C0101C028019601A3016C
:101DC000B501C2010E94090E5C0149855A85B50121
:101DD000C8010E94FD0D69807A802B813C81498574
:101DE0005A85249FF001259FF00D349FF00D11249A
:101DF000ED83FE835F01A00EB11E460D571D4B8380
:101E00005C832501130119821A828B809C8089854D
:101E10009A85881A990AA814B90408F450C0B80120
:101E2000C401F601099518161906C4F1892B71F43D
:101E300049855A85B401C1010E94FD0D89859A85A5
:101E4000280E391EE1E0F0E0E983FA832B813C8122
:101E500049855A85240F351F2B833C83D6CFB80183
:101E6000C501F6010995950149855A85241B350B55
:101E70002F83388797FD16C0892B71F449855A85C1
:101E8000B201C5010E94FD0D29853A85421A530A07
:101E900041E050E049835A83AF80B884A814B90464
:101EA000F0F60DC049855A85B501C4010E94FD0DAB
:101EB000AF80B88441E050E049835A83C7CF89811D
:101EC0009A81892B09F44FC06D807E8029853A85DF
:101ED000620E731E600E711E7401E218F308A101F8
:101EE000401B510BE416F5060CF4A7011416150659
:101EF00034F4B401641B750BC8010E94FD0DA201EE
:101F00004A195B095A01A3014419550989859A8523
:101F1000481B590BA416B50608F4A501141615069E
:101F200034F4B301641B750BC4010E94FD0DE985F7
:101F3000FA85EE15FF0548F4C701BF010E94E30DC5
:101F40009601AF01C8010E943E0E29853A852A15E7
:101F50003B05A0F583010A191B09C501B9010E94BF
:101F6000E30D7B0196CEE985FA85EE9E5001EF9E4A
:101F7000B00CFE9EB00C1124A00EB11E6A147B049E
:101F8000E8F473010E151F0528F089859A85680EFF
:101F9000791EF4CF4701E985FA858E1A9F0AB701A9
:101FA000C401F6010995181619067CF749855A856A
:101FB000B401C7010E94FD0D7401E4CF2A96E2E14D
:101FC0000C940210DC0101C06D9341505040E0F7C9
:101FD00008952F923F924F925F926F927F928F92CD
:101FE0009F92AF92BF92CF92DF92EF92FF920F93A8
:101FF0001F93CF93DF93CDB7DEB7CA1BDB0BCDBFEB
:10200000DEBF09942A88398848885F846E847D847D
:102010008C849B84AA84B984C884DF80EE80FD8090
:102020000C811B81AA81B981CE0FD11DCDBFDEBF2E
:08203000ED010895F894FFCFC3
:102038002E2E2F6173782F7372632F64696769740A
:10204800616C5F696E7075742E63002E2E2F61733C
:10205800782F7372632F6D656D2E63002E2E2F619E
:1020680073782F7372632F72656163746F722E6356
:10207800002E2E2F6173782F7372632F74696D652C
:10208800722E63002B2B2D2B322D322B322D002B51
:10209800312D002B2B2D00100B180B180BAF0C1823
:1020A8000B050B0E0B0E0B0E0B9B0C030B810C037D
:0F20B8000B030B030B010B010B670C010B010B4F
:1020C700078F3A184F7746C73E413BCA34072FE67A
:1020D70029A74A8242413BED37D331642C8C2777BD
:1020E70046C73EED37CA34072FE6295425FFFFFFC1
:1020F700FFFFFFFFFFFF0406010005080100067A46
:0C21070000000A0A00000B7100004F00ED
:00000001FF
