:100000000C943C000C9459000C9459000C94590029
:100010000C9459000C9459000C94F6000C941D019A
:100020000C9459000C9459000C9459000C945900EC
:100030000C9459000C9459000C947D060C945900B2
:100040000C9459000C9459000C9459000C945900CC
:100050000C9459000C9459000C9459000C945900BC
:100060000C9459000C943A040C9459000C945900C7
:100070000C9459000C94590011241FBECFEFCDBF32
:10008000DFE3DEBF18E3A0E0B8E3E5E1F3E102C09F
:1000900005900D92AA30B107D9F72AE3AAE0B8E398
:1000A00001C01D92A232B207E1F70E9418070C941A
:1000B0006C090C9400008111FFCF08952F923F929C
:1000C0004F925F926F927F928F929F92AF92BF9268
:1000D000CF92DF92EF92FF920F931F93CF93DF9314
:1000E00000D000D0CDB7DEB7B82EA62E882321F0E1
:1000F000809129048B8303C0909109049B831C8207
:10010000E0E2BE9E60011124FCEFDF1A8824839494
:10011000912C9B8190FF54C08A2D8170282E87E0FE
:10012000382EF4010C8002C0EE0FFF1F0A94E2F794
:10013000E983FA83232D30E080910038082E000CEB
:10014000990B28173907A1F187E0829FF001839F5F
:10015000F00D1124E65FF74CE0808E2D8695869594
:100160008695B81223C08E2D87709C8198131EC06F
:1001700043805480658076806E2D722D81810E942F
:100180004E02411451046104710451F0F22C00E05C
:1001900010E09801B301A20180E00E94700306C044
:1001A000F6018185F9818F2BF60181873A94C2CFC0
:1001B000FC81FF5FFC838B8186958B83A694A9CFFE
:1001C0002496CDBFDEBFDF91CF911F910F91FF909D
:1001D000EF90DF90CF90BF90AF909F908F907F90E7
:1001E0006F905F904F903F902F9008951F920F92C5
:1001F0000FB60F9211242F933F934F935F936F93FA
:100200007F938F939F93AF93BF93EF93FF936091EF
:10021000080480E00E945E00FF91EF91BF91AF91D2
:100220009F918F917F916F915F914F913F912F910E
:100230000F900FBE0F901F9018951F920F920FB640
:100240000F9211242F933F934F935F936F937F935C
:100250008F939F93AF93BF93EF93FF936091280485
:1002600081E00E945E00FF91EF91BF91AF919F915D
:100270008F917F916F915F914F913F912F910F904F
:100280000FBE0F901F9018950F931F93CF93DF937E
:10029000869FE001879FD00D969FD00D112400917D
:1002A000013810910238F801EC0FFD1F80818A3A65
:1002B00039F04CED52E96CE270E081E00E945B00A5
:1002C000AE0160E070E0C8010E94340980910138FD
:1002D00090910238C80FD91FC0930138D0930238CB
:1002E000C801DF91CF911F910F9108950F931F9334
:1002F000CF93DF930097B1F08B01EC0162E070E0E7
:10030000C8010E94440188839983A801440F551FA6
:100310006FEF70E00E9434091A821B821C820D83E9
:1003200081E001C080E0DF91CF911F910F9108958E
:10033000FC01892B31F091E08481811190E0892FBB
:1003400001C080E081700895FC01892B09F16115DD
:100350007105F1F084818823D9F0A281AA0FBB0B2B
:1003600080819181A80FB91F8D919C91DB018D93A4
:100370009C938281082E000C990B0196658170E098
:100380000E942707828384818150848381E00895BD
:1003900080E00895FC01892B31F1A381AA0FBB0BEA
:1003A00080819181A80FB91F6D937C934581242F83
:1003B00030E08381082E000C990B0196B9010E9450
:1003C000270783838481841718F48F5F848309C08F
:1003D0008281082E000C990B0196B9010E94270713
:1003E000828381E0089580E00895FC013181FB0162
:1003F000218181E090E0321740F0231710F080E077
:1004000090E0919581959109089508959091F33820
:10041000E4EFF8E380E0981719F081938F5FFBCF4A
:100420008091500081608093500008950F931F9336
:10043000CF93DF938C01D62FC42F8091423888232D
:1004400039F04DEE52E96EE770E081E00E945B000A
:100450004091F3382BE0429FC0011124FC01ED5B79
:10046000F74C00831183D28321E030E002C0220FD9
:10047000331F4A95E2F7238334836C2F70E0885B47
:10048000974C0E9476018091F33891E0980F9093F9
:10049000F338DF91CF911F910F910895F894409117
:1004A000043A5091053A2BE0829FC0011124FC01CF
:1004B000ED5BF74C23813481242B352B2093043AB8
:1004C0003093053A885B974C0E94CA01789408954E
:1004D000CF93DF9300D0CDB7DEB7CDB6DEB6809137
:1004E000F338682F70E09B01220F331F4DB75EB7C2
:1004F000421B530B4DBF5EBFADB7BEB711967D011A
:100500008D0123E438E3FD0190E0891751F09083D9
:10051000D90112964C9141839F5F3296255F3F4FE0
:10052000F4CF25EF31E042E050E0C7010E94900790
:10053000F8945090F33894EF292E98E3392E20E068
:1005400030E080E090E0DC0161E070E04BE0742E90
:100550002515C8F5F8016080AB01022E02C0440FDA
:10056000551F0A94E2F74A01052E000CAA08BB08A1
:10057000F10161921F01769C70011124F701ED5B7E
:10058000F74C43835483E090043AF090053AAB0172
:1005900002C0440F551F6A94E2F74E215F21452B9C
:1005A00029F088299929AA29BB2908C08094909408
:1005B000A094B09488219921AA21BB212F5F3F4F9D
:1005C0000E5F1F4FC5CF21E0209342388093043A3D
:1005D0009093053A7894CDBEDEBE8BE0D82EF89489
:1005E0008091043A9091053A892B19F47894889572
:1005F000F6CF8091043A9091053A282F7894409153
:10060000F33850E080E090E08417950740F720FF32
:1006100048C0A895F894FC01EC50F74C008110E01C
:10062000D09EC001D19E900D11249C01285B374CB7
:100630007901BE016F5F7F4FC9010E94A401811142
:1006400007C04DEE52E962E171E081E00E945B007B
:10065000C7010E9498018823A9F02091043A3091A3
:10066000053AD09EF001D19EF00D1124ED5BF74CC0
:100670008381948180959095822393238093043A7B
:100680009093053A7894D09EF001D19EF00D1124FC
:10069000ED5BF74C0190F081E02D89819A810995FD
:1006A0009ECF26950196B0CF7894609107397091CE
:1006B00008398091093990910A39F8940895CF92B8
:1006C000DF92EF92FF926B017C010E9454036C0D4C
:1006D0007D1D8E1D9F1DFF90EF90DF90CF900895A0
:1006E0003F924F925F926F927F928F929F92AF92C2
:1006F000BF92CF92DF92EF92FF920F931F93CF930F
:10070000DF9300D01F92CDB7DEB7382E4A015B01D0
:100710002801390187010E9454036B017C018091FB
:1007200006398B839B8180910539981311C0EB8129
:100730002FE0E202F0011124E55FF64C80818F3F4B
:1007400039F042E053E962E071E080E00E945B0032
:100750002FE0B501A4014C195D096E097F099B8149
:10076000809105399817D9F03B813203F0011124AB
:10077000E55FF64C85819681A781B0858C199D092E
:10078000AE09BF09481759076A077B0744F08B81F8
:100790008F3011F08F5F01C080E08B83E0CF8091BC
:1007A00005398A839A818B819817D1F08A818823B1
:1007B00011F0815001C08FE0898329814A813FE097
:1007C0004303D0011124A55FB64C2303F00111248B
:1007D000E55FF64C01900D923A95E1F78981E1CF02
:1007E0008091033890910438A0910538B091063873
:1007F000BC01CD016F5F7F4F8F4F9F4F60930338D8
:10080000709304388093053890930638EB812FE07D
:10081000E202F0011124E55FF64C308261837283BD
:100820008383948385829682A782B086418652868E
:100830006386748605871687209105392F3011F05D
:100840002F5F01C020E0209305392396CDBFDEBF86
:10085000DF91CF911F910F91FF90EF90DF90CF909C
:10086000BF90AF909F908F907F906F905F904F90D0
:100870003F9008951F920F920FB60F9211242F935D
:100880003F934F935F936F937F938F939F93AF9318
:10089000BF93EF93FF93E0E9FAE08681826086835D
:1008A0008091073990910839A0910939B0910A399E
:1008B0000196A11DB11D8093073990930839A0932B
:1008C0000939B0930A3960E070E0809104390E94E0
:1008D0004E02FF91EF91BF91AF919F918F917F91C8
:1008E0006F915F914F913F912F910F900FBE0F909D
:1008F0001F901895FC016083718342835383148A8F
:10090000158A168A178A108E0895DC01ED91FC91E4
:10091000119721EC2187ED91FC91660F6487089572
:10092000FC01808DA081B181882341F082E01A967C
:100930008C9386E0878B168A108E089581E0868BD3
:10094000178A19968C9119978F7D19968C93148A12
:10095000158A0190F081E02D83E082870895FC01E3
:10096000A081B18119968C9119978F7D19968C93DE
:10097000A081B1811B968C911B9780641B968C93F0
:1009800081E0878B168A0895CF93DF93EC01E8818D
:10099000F9818185806281878C89E881F98188303D
:1009A000D8F485859C89FE01E90FF11D8483EA81D5
:1009B000FB8109958C898F5F8C8B888DE881F9810B
:1009C000882339F082E0828786E08F8B1E8A188E1A
:1009D00008C083E0828705C086E0828782E08F8B33
:1009E0001E8ADF91CF910895CF93DF93FC01858913
:1009F000A081B181882351F01B968C911B9784FFB5
:100A000005C082E01A968C9381E016C085898830F3
:100A100080F48589EF01C80FD11D8C851D968C93BC
:100A200085898F5F858B0190F081E02D83E082873F
:100A300005C082E01A968C93878B168ADF91CF913E
:100A40000895DC01ED91FC91238521FD0C94F404C3
:100A50000C94C404FC01A081B1811B968C9182FF8F
:100A600004C0148A158A84E016C083FF04C0148A67
:100A7000158A83E010C086FF08C080FF03C0CF0145
:100A80000C949004CF010C94AF0487FF03C0CF01F6
:100A90000C94210585E0878B168A0895E0E0F4E048
:100AA00080E18683818380E28683818380E48683FC
:100AB000818380E886838183A0E2B4E088E0169693
:100AC0008C93169711968C93119794E012969C93A1
:100AD00022E0218391838183089581E08093073808
:100AE0000895EF92FF920F931F93CF938A3569F089
:100AF0008B3659F0853049F0843339F091E0803DF0
:100B000029F0813E19F090E001C091E0C92FC17039
:100B100090FF80C02091FC393091FD392F5F3F4F0D
:100B20002093FC393093FD3990910838891709F4E6
:100B300071C090910738992309F46CC08A3569F027
:100B400028F48530E9F08433E9F018C0803DE1F005
:100B5000813EE1F08B3691F41BC090E19093060446
:100B600090E29093060490E49093060490E89093AA
:100B7000060498E0909326041092FB3990E009C097
:100B80009BE007C094E005C095E003C096E001C07B
:100B900097E02091FB392917A9F0222399F0E22F41
:100BA000E695E695E69530E2E39FF0011124FC5FBF
:100BB000277041E050E0BA0102C0660F771F2A9506
:100BC000E2F766839093FB39992399F0E92FE69534
:100BD000E695E695F0E025E0EE0FFF1F2A95E1F798
:100BE000FC5F977021E030E001C0220F9A95EAF790
:100BF00025838093083810920738E12CF12C00E00F
:100C000010E0980148EE53E060E070E08091063A11
:100C10000E9470038C2FCF911F910F91FF90EF9046
:100C20000895EF92FF920F931F93F8948091FC39EF
:100C30009091FD397894892B19F48AE50E94710509
:100C4000F8941092FC391092FD397894E12CF12C33
:100C500000E010E0980148EE53E060E070E0809121
:100C6000073A0E9470031F910F91FF90EF90089533
:100C7000EF92FF920F931F9341E064E68DE695E0BB
:100C80000E9416028093063A41E064E681E196E014
:100C90000E9416028093073A68EE73E080E090E0CD
:100CA0000E945F03AB01BC01E12CF12C00E010E0DD
:100CB00098018091073A0E9470031F910F91FF9055
:100CC000EF900895CF93C0910C3A8C2F0E9471053C
:100CD000882379F00E941507CC2321F0C13029F434
:100CE00095EA01C09AE5892701C080E08093143A13
:100CF00002C01092143ACF9108951F920F920FB62E
:100D00000F9211242F933F934F935F936F937F9391
:100D10008F939F93AF93BF93EF93FF9388E09AE3F2
:100D20000E942A05FF91EF91BF91AF919F918F9102
:100D30007F916F915F914F913F912F910F900FBED7
:100D40000F901F90189542E656E060EA78E088E040
:100D50009AE30E947A0464E588E09AE30C9485049F
:100D6000EF92FF920F931F93909128048091033A82
:100D700092FF08C0803210F48F5F07C081E080933B
:100D8000FE3908C0882321F081508093033A02C0C5
:100D90001092FE394091FF395091003A6091013A2A
:100DA0007091023A465F5F4F6F4F7F4F4093FF391C
:100DB0005093003A6093013A7093023AE12CF12C7F
:100DC00000E010E098018091213A0E9470031F9189
:100DD0000F91FF90EF900895EF92FF920F931F9362
:100DE00041E062E880EB96E00E9416028093213A8F
:100DF00060E070E0CB010E945F03AB01BC01409357
:100E0000FF395093003A6093013A7093023AE12C13
:100E1000F12C00E010E098018091213A0E947003CB
:100E20001F910F91FF90EF9008958091FE390895E2
:100E30000E944E050E94EC060E9438060E94A306FE
:100E40000E9406020E94680280E090E0089597FBED
:100E5000072E16F4009407D077FD09D00E943B07B7
:100E600007FC05D03EF4909581959F4F08957095AD
:100E700061957F4F0895AA1BBB1B51E107C0AA1FB4
:100E8000BB1FA617B70710F0A61BB70B881F991F2B
:100E90005A95A9F780959095BC01CD010895DC0184
:100EA000FB018C9190819D938193415051091416BF
:100EB0001506BCF30895A0E0B0E0E1E6F7E00C947D
:100EC00045097C016B01D42FC52F8901F9010995D2
:100ED0006D2F7C2F97FF10C0C601F801099597FF71
:100EE00002C0C60118C06D2F7C2FC701F8010995FB
:100EF00097FD0FC0C7010FC0C601F801099518166C
:100F000019067CF36D2F7C2FC701F801099597FD19
:100F1000F1CF8D2F9C2FCDB7DEB7E8E00C945E09A2
:100F2000AAE0B0E0E6E9F7E00C943B098C017B0114
:100F300049875A87690129853A85200F311F2983FE
:100F40003A8337E0E316F10470F569807A804985C9
:100F50005A85E49E5001E59EB00CF49EB00C11241D
:100F6000A00EB11E6A147B0408F07AC173010E153D
:100F70001F0528F089859A85680E791EF3CF4701F1
:100F8000E985FA858E1A9F0AB701C401F601099511
:100F9000181619067CF749855A85B401C7010E94C5
:100FA0004F077401E4CFC7019695879529853A8547
:100FB000829F5001839FB00C929FB00C1124A00E11
:100FC000B11EA701415051094B835C8357E0E516E0
:100FD000F10409F44CC08B819C81829F3001839F76
:100FE000700C929F700C1124600E711E99E2E9162C
:100FF000F104A8F1C70143E0969587954A95E1F77A
:10100000829F4001839F900C929F900C11241401A9
:10101000220C331CA801420D531DB801680D791D27
:101020009601C8010E945B072C01A501480D591DBE
:101030009194819491089601B501C501880D991D7F
:101040000E945B075C01B301680D791D9601A30145
:10105000C301821993090E945B073C0101C028016A
:101060009601A301B501C2010E945B075C0149859D
:101070005A85B501C8010E944F0769807A802B818B
:101080003C8149855A85249FF001259FF00D349FAE
:10109000F00D1124ED83FE835F01A00EB11E460DFD
:1010A000571D4B835C832501130119821A828B80A3
:1010B0009C8089859A85881A990AA814B90408F42D
:1010C00050C0B801C401F601099518161906C4F1FB
:1010D000892B71F449855A85B401C1010E944F07DB
:1010E00089859A85280E391EE1E0F0E0E983FA83CC
:1010F0002B813C8149855A85240F351F2B833C83E6
:10110000D6CFB801C501F6010995950149855A85E3
:10111000241B350B2F83388797FD16C0892B71F45C
:1011200049855A85B201C5010E944F0729853A8534
:10113000421A530A41E050E049835A83AF80B88491
:10114000A814B904F0F60DC049855A85B501C4014B
:101150000E944F07AF80B88441E050E049835A8332
:10116000C7CF89819A81892B09F44FC06D807E8019
:1011700029853A85620E731E600E711E7401E21895
:10118000F308A101401B510BE416F5060CF4A7016E
:101190001416150634F4B401641B750BC8010E94C3
:1011A0004F07A2014A195B095A01A30144195509C5
:1011B00089859A85481B590BA416B50608F4A50124
:1011C0001416150634F4B301641B750BC4010E9498
:1011D0004F07E985FA85EE15FF0548F4C701BF0101
:1011E0000E943B079601AF01C8010E949007298524
:1011F0003A852A153B05A0F583010A191B09C5018B
:10120000B9010E943B077B0196CEE985FA85EE9EE7
:101210005001EF9EB00CFE9EB00C1124A00EB11E2A
:101220006A147B04E8F473010E151F0528F0898504
:101230009A85680E791EF4CF4701E985FA858E1AE2
:101240009F0AB701C401F6010995181619067CF723
:1012500049855A85B401C7010E944F077401E4CF44
:101260002A96E2E10C945409DC0101C06D934150CF
:101270005040E0F708952F923F924F925F926F9205
:101280007F928F929F92AF92BF92CF92DF92EF9216
:10129000FF920F931F93CF93DF93CDB7DEB7CA1B97
:1012A000DB0BCDBFDEBF09942A88398848885F846C
:1012B0006E847D848C849B84AA84B984C884DF80F6
:1012C000EE80FD800C811B81AA81B981CE0FD11DDA
:0C12D000CDBFDEBFED010895F894FFCF04
:1012DC002E2E2F6173782F7372632F6D656D2E63B5
:1012EC00002E2E2F6173782F7372632F72656163DA
:1012FC00746F722E63002E2E2F6173782F737263AE
:09130C002F74696D65722E6300F7
:0A13150007223AFFFFFFFF015A0014
:00000001FF
